:030000000201D921
:0C01D900787FE4F6D8FD75810B0200264B
:1001A3004572726F722100302C312C322C332C3477
:1001B3002C352C362C372C382C392C31302C313132
:1001C3002C31322C31332C31342C31352C31362C2B
:0601D30031372C31380029
:10000300758920758DFD758BFDD28ED29CC29FD2D2
:060013009ED2AFD2AC2228
:10002600120003E508640170FAC2ACE50924E0B4E5
:100036001300400302017A90004B75F003A4C583B8
:1000460025F0C583730200840200930200A2020019
:10005600B10200C00200CF0200DE0200ED02017A0A
:100066000200FC02010B02011A0201260201320201
:10007600013E02014A02015602016202016E90012E
:10008600AAE493F59930990302019980F89001AB9F
:10009600E493F59930990302019980F89001ACE454
:1000A60093F59930990302019980F89001ADE49394
:1000B600F59930990302019980F89001AEE493F521
:1000C6009930990302019980F89001AFE493F5996C
:1000D60030990302019980F89001B0E493F59930C4
:1000E600990302019980F89001B1E493F59930994A
:1000F6000302019980F89001B2E493F599309903CF
:1001060002019980F89001B3E493F59930990302BE
:10011600019980F89001B4E493F59920997580FBD4
:100126009001B5E493F59920996980FB9001B6E4B6
:1001360093F59920995D80FB9001B7E493F599209A
:10014600995180FB9001B8E493F59920994580FB7D
:100156009001B9E493F59920993980FB9001BAE4AE
:1001660093F59920992D80FB9001BBE493F5992096
:10017600992180FBE4F50BC3E50B94087480948009
:100186005011E50B9001A393F5993099FDC299059D
:0D0196000B80E4C299D2ACE4F50802002908
:03002300020019BF
:09001900C29885990A75080132AC
:00000001FF
