:030000000201B941
:0C01B900787FE4F6D8FD75811302000E7B
:1001A9003F065B4F666D7D077F6F777C395E79719E
:06017500C2A77F017E001D
:10017B00D3EF9400EE940040147D6E7C00ED1D7067
:0D018B00011CED4C70F7EF1F70E61E80E3C5
:010198002244
:10019900758901758C4CE4F58AD2AFD2A9D28C222B
:10000E00120199AE08AF097C007D0A1200FB8C0A22
:10001E008D0BAE08AF097C007D641200FB7E007F65
:10002E000ACFCDCFCECCCE1200FB8E0C8F0DAE08EC
:10003E00AF097C037DE81200FB7E007F64CFCDCF3D
:10004E00CECCCE1200FB8E0E8F0FAE08AF097C0306
:10005E007DE81200FB8E108F11D2A674A9250BF528
:10006E00827401350AF583E493F580C2A67580FF8C
:10007E00D2A77580F7120175E50D450C601FD2A64B
:10008E0074A9250DF5827401350CF583E493F58082
:10009E00C2A67580FFD2A77580FB120175E50F45CC
:1000AE000E601FD2A674A9250FF5827401350EF5C8
:1000BE0083E493F580C2A67580FFD2A77580FD12EA
:1000CE000175E51145107003020011D2A674A92521
:1000DE0011F58274013510F583E493F580C2A6758F
:0D00EE0080FFD2A77580FE1201750200117F
:03000B000201509F
:10015000C0E0758C4C758A000513E513700205121A
:1001600064144512700CF512F5130509E5097002C7
:050170000508D0E0329B
:1000FB00BC000BBE0029EF8DF084FFADF022E4CCE9
:10010B00F875F008EF2FFFEE33FEEC33FCEE9DECB1
:10011B00984005FCEE9DFE0FD5F0E9E4CEFD22EDF7
:10012B00F8F5F0EE8420D21CFEADF075F008EF2F41
:10013B00FFED33FD4007985006D5F0F222C398FD32
:05014B000FD5F0EA22CF
:00000001FF
