:030000000200F605
:0C00F600787FE4F6D8FD75810902010254
:1000D800D3EF9400EE940040147D6E7C00ED1D700B
:0D00E800011CED4C70F7EF1F70E61E80E369
:0100F50022E8
:1000030075B0FEAFB07508008F095309FC75080081
:10001300E50964FC450860527F0A7E001200D8AFF0
:10002300B07508008F095309FC750800E50964FCE5
:1000330045086036AFB07508008F09E5087010E514
:1000430009240A600824FC7006C2858002C284E584
:100053000964FC4508600FAFB07508008F095309A8
:10006300FC75080080E9D284D28575B0FDAFB07508
:1000730008008F095309FC750800E50964FC45086D
:1000830060527F0A7E001200D8AFB07508008F0956
:100093005309FC750800E50964FC45086036AFB0F8
:1000A3007508008F09E5087010E509240B60082422
:1000B300FC7006C2878002C286E50964FC450860BD
:1000C3000FAFB07508008F095309FC75080080E96C
:0500D300D286D2872255
:0501020012000380FB68
:00000001FF
