:030000000201C931
:0C01C900787FE4F6D8FD75811702021063
:1002CE003F065B4F666D7D077F6F777C395E797178
:0C02DE00020C0000020A000002080000F0
:0602AA00C2A77F017E00E7
:1002B000D3EF9400EE940040147D6E7C00ED1D7031
:0D02C000011CED4C70F7EF1F70E61E80E38F
:0102CD00220E
:1000030075B0FEAFB0750E008F0F530FFC750E0069
:10001300E50F64FC450E60577F0A7E001202B0AF05
:10002300B0750E008F0F530FFC750E00E50F64FCC7
:10003300450E603BAFB0750E008F0FE50E7019E5EE
:100043000F240A600824FC700F74038002740225D5
:100053000DF50DE4350CF50CE50F64FC450E600F52
:10006300AFB0750E008F0F530FFC750E0080E9754E
:10007300B0FDAFB0750E008F0F530FFC750E00E58A
:100083000F64FC450E60577F0A7E001202B0AFB0CA
:10009300750E008F0F530FFC750E00E50F64FC45C2
:1000A3000E603BAFB0750E008F0FE50E7019E50FB4
:1000B300240B600824FC700F740580027404250D62
:1000C300F50DE4350CF50CE50F64FC450E600FAF40
:1000D300B0750E008F0F530FFC750E0080E9850C71
:0900E3000A850D0BAE0AAF0B22D9
:1000EC001200031200038E088F097C007D0A120295
:1000FC00558C108D11AE08AF097C007D6412025531
:10010C007E007F0ACFCDCFCECCCE1202558E128F71
:10011C0013751400E509540AF515AE08AF097C03F4
:10012C007DE81202558E168F17D2A674CE2511F5C6
:10013C008274023510F583E493F580C2A67580FFB6
:10014C00D2A77580F71202AAE5134512601FD2A63A
:10015C0074CE2513F58274023512F583E493F58081
:10016C00C2A67580FFD2A77580FB1202AAE51545C1
:10017C0014601FD2A674CE2515F58274023514F5C1
:10018C0083E493F580C2A67580FFD2A77580FD121B
:10019C0002AAE517451670030200ECD2A674CE2510
:1001AC0017F58274023516F583E493F580C2A675B3
:0D01BC0080FFD2A77580FE1202AA0200EC9F
:1001D5000200ECE493A3F8E493A34003F68001F254
:1001E50008DFF48029E493A3F85407240CC8C3332B
:1001F500C4540F4420C8834004F456800146F6DFFA
:10020500E4800B01020408102040809002DEE47EA9
:10021500019360BCA3FF543F30E509541FFEE493EE
:10022500A360010ECF54C025E060A840B8E493A3B5
:10023500FAE493A3F8E493A3C8C582C8CAC583CAE0
:10024500F0A3C8C582C8CAC583CADFE9DEE780BE98
:0102EA000013
:10025500BC000BBE0029EF8DF084FFADF022E4CC8D
:10026500F875F008EF2FFFEE33FEEC33FCEE9DEC56
:10027500984005FCEE9DFE0FD5F0E9E4CEFD22ED9C
:10028500F8F5F0EE8420D21CFEADF075F008EF2FE6
:10029500FFED33FD4007985006D5F0F222C398FDD7
:0502A5000FD5F0EA2274
:00000001FF
