:0300000002008675
:0C008600787FE4F6D8FD75810B02009233
:08009200D2AFD2A8D28880FE93
:0A007200E509950BFFE508950AFE6D
:0A007C00EF1F70011E144E70F722F2
:03000300020006F2
:10000600C0E0C0D075D000C006C007C28475080322
:100016007509E8750A00750B00750A00750B01C3B2
:10002600E50B9509E50A95085019C284AF0BAE0A8F
:1000360012007CD284C3120072050BE50B70E0053A
:100046000A80DC750A03750BE7D3E50B9400E50A15
:10005600940040C5C284AF0BAE0A12007CD2841253
:0C0066000072E50B150B70E1150A80DD3F
:00000001FF
