:030000000201E317
:0C01E300787FE4F6D8FD75811902000E4B
:1001D3003F065B4F666D7D077F6F777C395E797174
:06019F00C2A77F017E00F3
:1001A500D3EF9400EE940040147D6E7C00ED1D703D
:0D01B500011CED4C70F7EF1F70E61E80E39B
:0101C200221A
:1001C300758901758C4CE4F58AD2AFD2A9D28C2201
:10000E001201C3AE08AF097C007D0A1201258C10C7
:10001E008D11AE08AF097C007D641201257E007F34
:10002E000ACFCDCFCECCCE1201258E128F13AE08B5
:10003E00AF097C037DE81201257E007F64CFCDCF12
:10004E00CECCCE1201258E148F15AE08AF097C03CF
:10005E007DE81201258E168F17D2A674D32511F5C1
:10006E008274013510F583E493F580C2A67580FF86
:10007E00D2A77580F712019FE51345127008E50BA4
:10008E006401450A7025D2A674D32513F582740136
:10009E003512F583E493F580C2A67580FFD2A7755D
:1000AE0080FB12019F750A00750B01E51545147052
:1000BE0008E50D6401450C7025D2A674D32515F5FF
:1000CE008274013514F583E493F580C2A67580FF22
:1000DE00D2A77580FD12019F750C00750D01E517F5
:1000EE004516700BE50F6401450E6003020011D238
:1000FE00A674D32517F58274013516F583E493F5AE
:10010E0080C2A67580FFD2A77580FE12019F750E64
:07011E0000750F0102001142
:03000B0002017A75
:10017A00C0E0758C4C758A000519E51970020518DE
:10018A0064144518700CF518F5190509E50970028B
:05019A000508D0E03271
:10012500BC000BBE0029EF8DF084FFADF022E4CCBE
:10013500F875F008EF2FFFEE33FEEC33FCEE9DEC87
:10014500984005FCEE9DFE0FD5F0E9E4CEFD22EDCD
:10015500F8F5F0EE8420D21CFEADF075F008EF2F17
:10016500FFED33FD4007985006D5F0F222C398FD08
:050175000FD5F0EA22A5
:00000001FF
