:0300000002007784
:0C007700787FE4F6D8FD75810B020003D1
:0A006300E509950BFFE508950AFE7C
:0A006D00EF1F70011E144E70F72201
:10000300D2847508037509E8E4F50AF50B750A004F
:10001300750B01C3E50B9509E50A95085019C284D0
:10002300AF0BAE0A12006DD284C3120063050BE559
:100033000B70E0050A80DC750A03750BE7D3E50B4B
:100043009400E50A940040C5C284AF0BAE0A1200C7
:100053006DD284120063E50B150B70E1150A80DD88
:00000001FF
